{
  "contractName": "HBank",
  "abi": [
    {
      "inputs": [
        {
          "internalType": "address",
          "name": "_hamTokenContract",
          "type": "address"
        },
        {
          "internalType": "uint32",
          "name": "_yearlyReturnRate",
          "type": "uint32"
        }
      ],
      "stateMutability": "nonpayable",
      "type": "constructor"
    },
    {
      "inputs": [],
      "name": "AVG_BLOCK_TIME",
      "outputs": [
        {
          "internalType": "uint8",
          "name": "",
          "type": "uint8"
        }
      ],
      "stateMutability": "view",
      "type": "function",
      "constant": true
    },
    {
      "inputs": [],
      "name": "MIN_DEPOSIT_AMOUNT",
      "outputs": [
        {
          "internalType": "uint256",
          "name": "",
          "type": "uint256"
        }
      ],
      "stateMutability": "view",
      "type": "function",
      "constant": true
    },
    {
      "inputs": [],
      "name": "YEAR_SECONDS",
      "outputs": [
        {
          "internalType": "uint32",
          "name": "",
          "type": "uint32"
        }
      ],
      "stateMutability": "view",
      "type": "function",
      "constant": true
    },
    {
      "inputs": [],
      "name": "interestPerSecondForMinDeposit",
      "outputs": [
        {
          "internalType": "uint256",
          "name": "",
          "type": "uint256"
        }
      ],
      "stateMutability": "view",
      "type": "function",
      "constant": true
    },
    {
      "inputs": [
        {
          "internalType": "address",
          "name": "",
          "type": "address"
        }
      ],
      "name": "investors",
      "outputs": [
        {
          "internalType": "bool",
          "name": "hasActiveDeposit",
          "type": "bool"
        },
        {
          "internalType": "uint256",
          "name": "amount",
          "type": "uint256"
        },
        {
          "internalType": "uint256",
          "name": "startTime",
          "type": "uint256"
        }
      ],
      "stateMutability": "view",
      "type": "function",
      "constant": true
    },
    {
      "inputs": [],
      "name": "yearlyReturnRate",
      "outputs": [
        {
          "internalType": "uint32",
          "name": "",
          "type": "uint32"
        }
      ],
      "stateMutability": "view",
      "type": "function",
      "constant": true
    },
    {
      "inputs": [],
      "name": "deposit",
      "outputs": [],
      "stateMutability": "payable",
      "type": "function",
      "payable": true
    },
    {
      "inputs": [],
      "name": "withdraw",
      "outputs": [],
      "stateMutability": "nonpayable",
      "type": "function"
    }
  ],
  "bytecode": "0x60806040523480156200001157600080fd5b5060405162000f1438038062000f14833981810160405281019062000037919062000204565b816000806101000a81548173ffffffffffffffffffffffffffffffffffffffff021916908373ffffffffffffffffffffffffffffffffffffffff16021790555060008163ffffffff1611801562000095575060648163ffffffff1611155b620000d7576040517f08c379a0000000000000000000000000000000000000000000000000000000008152600401620000ce90620002d2565b60405180910390fd5b80600060146101000a81548163ffffffff021916908363ffffffff1602179055506301e1338063ffffffff166064600060149054906101000a900463ffffffff1663ffffffff16670de0b6b3a76400006200013391906200032d565b6200013f9190620003bd565b6200014b9190620003bd565b6001819055505050620003f5565b600080fd5b600073ffffffffffffffffffffffffffffffffffffffff82169050919050565b60006200018b826200015e565b9050919050565b6200019d816200017e565b8114620001a957600080fd5b50565b600081519050620001bd8162000192565b92915050565b600063ffffffff82169050919050565b620001de81620001c3565b8114620001ea57600080fd5b50565b600081519050620001fe81620001d3565b92915050565b600080604083850312156200021e576200021d62000159565b5b60006200022e85828601620001ac565b92505060206200024185828601620001ed565b9150509250929050565b600082825260208201905092915050565b7f596561726c792072657475726e2072617465206d75737420626520626574776560008201527f656e20312520616e642031303025000000000000000000000000000000000000602082015250565b6000620002ba602e836200024b565b9150620002c7826200025c565b604082019050919050565b60006020820190508181036000830152620002ed81620002ab565b9050919050565b6000819050919050565b7f4e487b7100000000000000000000000000000000000000000000000000000000600052601160045260246000fd5b60006200033a82620002f4565b91506200034783620002f4565b9250817fffffffffffffffffffffffffffffffffffffffffffffffffffffffffffffffff0483118215151615620003835762000382620002fe565b5b828202905092915050565b7f4e487b7100000000000000000000000000000000000000000000000000000000600052601260045260246000fd5b6000620003ca82620002f4565b9150620003d783620002f4565b925082620003ea57620003e96200038e565b5b828204905092915050565b610b0f80620004056000396000f3fe60806040526004361061007b5760003560e01c806385ba05921161004e57806385ba05921461012c578063b330db2814610157578063c9bac3e114610182578063d0e30db0146101ad5761007b565b80630bb359b7146100805780631ea30fef146100ab5780633ccfd60b146100d65780636f7bc9be146100ed575b600080fd5b34801561008c57600080fd5b506100956101b7565b6040516100a29190610655565b60405180910390f35b3480156100b757600080fd5b506100c06101cd565b6040516100cd9190610689565b60405180910390f35b3480156100e257600080fd5b506100eb6101d9565b005b3480156100f957600080fd5b50610114600480360381019061010f9190610707565b61041f565b6040516101239392919061074f565b60405180910390f35b34801561013857600080fd5b50610141610456565b60405161014e91906107a2565b60405180910390f35b34801561016357600080fd5b5061016c61045b565b6040516101799190610655565b60405180910390f35b34801561018e57600080fd5b50610197610463565b6040516101a49190610689565b60405180910390f35b6101b5610469565b005b600060149054906101000a900463ffffffff1681565b670de0b6b3a764000081565b60011515600260003373ffffffffffffffffffffffffffffffffffffffff1673ffffffffffffffffffffffffffffffffffffffff16815260200190815260200160002060000160009054906101000a900460ff1615151461026f576040517f08c379a000000000000000000000000000000000000000000000000000000000815260040161026690610840565b60405180910390fd5b6000600260003373ffffffffffffffffffffffffffffffffffffffff1673ffffffffffffffffffffffffffffffffffffffff16815260200190815260200160002090506000816001015490506000600e60ff168360020154436102d2919061088f565b6102dc91906108c3565b90506000670de0b6b3a7640000836102f4919061094c565b60015461030191906108c3565b90506000828261031191906108c3565b90503373ffffffffffffffffffffffffffffffffffffffff166108fc859081150290604051600060405180830381858888f19350505050158015610359573d6000803e3d6000fd5b5060008054906101000a900473ffffffffffffffffffffffffffffffffffffffff1673ffffffffffffffffffffffffffffffffffffffff166340c10f1933836040518363ffffffff1660e01b81526004016103b592919061098c565b600060405180830381600087803b1580156103cf57600080fd5b505af11580156103e3573d6000803e3d6000fd5b505050506000856001018190555060008560000160006101000a81548160ff021916908315150217905550600085600201819055505050505050565b60026020528060005260406000206000915090508060000160009054906101000a900460ff16908060010154908060020154905083565b600e81565b6301e1338081565b60015481565b670de0b6b3a76400003410156104b4576040517f08c379a00000000000000000000000000000000000000000000000000000000081526004016104ab90610a27565b60405180910390fd5b60011515600260003373ffffffffffffffffffffffffffffffffffffffff1673ffffffffffffffffffffffffffffffffffffffff16815260200190815260200160002060000160009054906101000a900460ff161515141561054b576040517f08c379a000000000000000000000000000000000000000000000000000000000815260040161054290610ab9565b60405180910390fd5b34600260003373ffffffffffffffffffffffffffffffffffffffff1673ffffffffffffffffffffffffffffffffffffffff168152602001908152602001600020600101819055506001600260003373ffffffffffffffffffffffffffffffffffffffff1673ffffffffffffffffffffffffffffffffffffffff16815260200190815260200160002060000160006101000a81548160ff02191690831515021790555043600260003373ffffffffffffffffffffffffffffffffffffffff1673ffffffffffffffffffffffffffffffffffffffff16815260200190815260200160002060020181905550565b600063ffffffff82169050919050565b61064f81610636565b82525050565b600060208201905061066a6000830184610646565b92915050565b6000819050919050565b61068381610670565b82525050565b600060208201905061069e600083018461067a565b92915050565b600080fd5b600073ffffffffffffffffffffffffffffffffffffffff82169050919050565b60006106d4826106a9565b9050919050565b6106e4816106c9565b81146106ef57600080fd5b50565b600081359050610701816106db565b92915050565b60006020828403121561071d5761071c6106a4565b5b600061072b848285016106f2565b91505092915050565b60008115159050919050565b61074981610734565b82525050565b60006060820190506107646000830186610740565b610771602083018561067a565b61077e604083018461067a565b949350505050565b600060ff82169050919050565b61079c81610786565b82525050565b60006020820190506107b76000830184610793565b92915050565b600082825260208201905092915050565b7f4163636f756e74206d757374206861766520616e20616374697665206465706f60008201527f73697420746f2077697468647261770000000000000000000000000000000000602082015250565b600061082a602f836107bd565b9150610835826107ce565b604082019050919050565b600060208201905081810360008301526108598161081d565b9050919050565b7f4e487b7100000000000000000000000000000000000000000000000000000000600052601160045260246000fd5b600061089a82610670565b91506108a583610670565b9250828210156108b8576108b7610860565b5b828203905092915050565b60006108ce82610670565b91506108d983610670565b9250817fffffffffffffffffffffffffffffffffffffffffffffffffffffffffffffffff048311821515161561091257610911610860565b5b828202905092915050565b7f4e487b7100000000000000000000000000000000000000000000000000000000600052601260045260246000fd5b600061095782610670565b915061096283610670565b9250826109725761097161091d565b5b828204905092915050565b610986816106c9565b82525050565b60006040820190506109a1600083018561097d565b6109ae602083018461067a565b9392505050565b7f4d696e696d756d206465706f73697420616d6f756e742069732031204574686560008201527f7200000000000000000000000000000000000000000000000000000000000000602082015250565b6000610a116021836107bd565b9150610a1c826109b5565b604082019050919050565b60006020820190508181036000830152610a4081610a04565b9050919050565b7f4163636f756e742063616e27742068617665206d756c7469706c65206163746960008201527f7665206465706f73697473000000000000000000000000000000000000000000602082015250565b6000610aa3602b836107bd565b9150610aae82610a47565b604082019050919050565b60006020820190508181036000830152610ad281610a96565b905091905056fea2646970667358221220a6c27ed1606dadb1e1db36dba923d0a10e778edc354954dd636d38693966660564736f6c634300080b0033",
  "immutableReferences": {},
  "source": "// SPDX-License-Identifier: MIT\r\npragma solidity ^0.8.0;\r\n\r\nimport \"./HAMToken.sol\";\r\n\r\ncontract HBank {\r\n    // HAM Token Contract instance\r\n    HAMToken private hamTokenContract;\r\n\r\n    // Yearly return rate of the bank\r\n    uint32 public yearlyReturnRate;\r\n\r\n    // Seconds in a year\r\n    uint32 public constant YEAR_SECONDS = 31536000;\r\n\r\n    // Average block time in Ethereum\r\n    uint8 public constant AVG_BLOCK_TIME = 14;\r\n\r\n    // Minimum deposit amount (1 Ether, expressed in Wei)\r\n    uint256 public constant MIN_DEPOSIT_AMOUNT = 10**18;\r\n\r\n    /* Interest earned per second for a minumum deposit amount.\r\n     * Equals to the yearly return of the minimum deposit amount\r\n     * divided by the number of seconds in a year.\r\n     */\r\n    uint256 public interestPerSecondForMinDeposit;\r\n\r\n    // Represents an investor record\r\n    struct Investor {\r\n        bool hasActiveDeposit;\r\n        uint amount;\r\n        uint256 startTime;\r\n    }\r\n\r\n    // Address to investor mapping\r\n    mapping(address => Investor) public investors;\r\n\r\n    /**\r\n     * @dev Initializes the hamTokenContract with the provided contract address.\r\n     * Sets the yearly return rate for the bank.\r\n     * Yearly return rate must be between 1 and 100.\r\n     * Calculates and sets the interest earned per second for a minumum deposit amount\r\n     * based on the yearly return rate.\r\n     * @param _hamTokenContract address of the deployed HAMToken contract\r\n     * @param _yearlyReturnRate yearly return rate of the bank\r\n     */\r\n    constructor(address _hamTokenContract, uint32 _yearlyReturnRate) public {\r\n        hamTokenContract = HAMToken(_hamTokenContract);\r\n\r\n        require(_yearlyReturnRate > 0 && _yearlyReturnRate <= 100, \"Yearly return rate must be between 1% and 100%\");\r\n        yearlyReturnRate = _yearlyReturnRate;\r\n\r\n        // Calculate interest per second for min deposit (1 Ether)\r\n        interestPerSecondForMinDeposit = ((MIN_DEPOSIT_AMOUNT * yearlyReturnRate) / 100) / YEAR_SECONDS;\r\n    }\r\n\r\n    /**\r\n     * @dev Initializes the respective investor object in investors mapping for the caller of the function.\r\n     * Sets the amount to message value and starts the deposit time.\r\n     * Minimum deposit amount is 1 Ether (be careful about decimals!)\r\n     * Investor can't have an already active deposit.\r\n     */\r\n    function deposit() public payable {\r\n      require(msg.value >= MIN_DEPOSIT_AMOUNT, \"Minimum deposit amount is 1 Ether\");\r\n      require(investors[msg.sender].hasActiveDeposit != true, \"Account can't have multiple active deposits\");\r\n\r\n      investors[msg.sender].amount = msg.value;\r\n      investors[msg.sender].hasActiveDeposit = true;\r\n      // Use block number as the start time\r\n      investors[msg.sender].startTime = block.number;\r\n    }\r\n\r\n    /**\r\n     * @dev Calculates the interest to be paid out based\r\n     * on the deposit amount and duration.\r\n     * Transfers back the deposited amount in Ether.\r\n     * Mints HAM tokens to investor to pay the interest (1 token = 1 interest).\r\n     * Resets the respective investor object in investors mapping.\r\n     * Investor must have an active deposit.\r\n     */\r\n    function withdraw() public {\r\n        require(investors[msg.sender].hasActiveDeposit == true, \"Account must have an active deposit to withdraw\");\r\n\r\n        Investor storage investor = investors[msg.sender];\r\n        uint depositedAmount = investor.amount;\r\n        uint depositDuration = (block.number - investor.startTime) * AVG_BLOCK_TIME;\r\n\r\n        // Calculate interest per second\r\n        uint interestPerSecond = interestPerSecondForMinDeposit * (depositedAmount / MIN_DEPOSIT_AMOUNT);\r\n        uint interest = interestPerSecond * depositDuration;\r\n\r\n        // Send back deposited Ether to investor\r\n        payable(msg.sender).transfer(depositedAmount);\r\n        // Mint HAM Tokens to investor, to pay out the interest\r\n        hamTokenContract.mint(msg.sender, interest);\r\n\r\n        // Reset the investor object\r\n        investor.amount = 0;\r\n        investor.hasActiveDeposit = false;\r\n        investor.startTime = 0;\r\n    }\r\n}\r\n",
  "sourcePath": "/Users/hamnaanaa/Dev/Solidity/Ethereum-Smart-Contracts/contracts/HBank.sol",
  "compiler": {
    "name": "solc",
    "version": "0.8.11+commit.d7f03943.Emscripten.clang"
  },
  "schemaVersion": "3.4.8",
  "updatedAt": "2022-07-13T15:08:34.514Z",
  "networkType": "ethereum",
  "devdoc": {
    "kind": "dev",
    "methods": {
      "constructor": {
        "details": "Initializes the hamTokenContract with the provided contract address. Sets the yearly return rate for the bank. Yearly return rate must be between 1 and 100. Calculates and sets the interest earned per second for a minumum deposit amount based on the yearly return rate.",
        "params": {
          "_hamTokenContract": "address of the deployed HAMToken contract",
          "_yearlyReturnRate": "yearly return rate of the bank"
        }
      },
      "deposit()": {
        "details": "Initializes the respective investor object in investors mapping for the caller of the function. Sets the amount to message value and starts the deposit time. Minimum deposit amount is 1 Ether (be careful about decimals!) Investor can't have an already active deposit."
      },
      "withdraw()": {
        "details": "Calculates the interest to be paid out based on the deposit amount and duration. Transfers back the deposited amount in Ether. Mints HAM tokens to investor to pay the interest (1 token = 1 interest). Resets the respective investor object in investors mapping. Investor must have an active deposit."
      }
    },
    "version": 1
  },
  "userdoc": {
    "kind": "user",
    "methods": {},
    "version": 1
  }
}